:0A0000000C9446000C9400000C94D0
:10000A0000000C9400000C9400000C9400000C9466
:10001A0000000C9400000C9400000C9400000C9456
:10002A0000000C9400000C9400000C9400000C9446
:10003A0000000C9400000C9400000C9400000C9436
:10004A0000000C9473000C9400001027E80364006D
:10005A000A00010000100001100001000000000069
:10006A00000000002564203A202564203A202564F7
:10007A00000080C0080004006600020060017C00E5
:10008A000000F894EE27ECBBF1E0FBBFEBBFE5BF45
:10009A008DE0A2E0BB27ED938A95E9F780E094E032
:1000AA00A0E6ED930197E9F7EEE7F0E085919591E7
:1000BA00009761F0A591B59105901590BF01F001E7
:1000CA0005900D920197E1F7FB01F0CFEFE5EDBF47
:1000DA00E4E0EEBFC0E6D1E00C94D4000A921A9292
:1000EA00FA926A937A938A939A93AA93BA93EA931F
:1000FA00FA93EFB7EA936497F20131962F01EAE097
:10010A00F0E0E415F50529F4F30131963F014424A2
:10011A005524ECE3F0E0E615F70529F4F4013196ED
:10012A004F0166247724ECE3F0E0E815F90529F499
:10013A00F50131965F0188249924E8E1F0E0EA1597
:10014A00FB0511F4AA24BB24FE01FA93EA93EEE616
:10015A00F0E0FA93EA93F5010E943D03F4010E944C
:10016A003D03F3010E943D038CE00E946102609608
:10017A00E0E0EA93A0E00E94B502DE010E94E502F7
:10018A006496E991EFBFF991E991B991A991999191
:10019A00899179916991F990199009901895E0E0FF
:1001AA00EABBEBBBE8E0E7BBE0E0E8BBE4BBE5BBEE
:1001BA00E1BBE2BBEDE1E3BFE0E0E2BFE0E6ECBFBA
:1001CA00E2E0E9BFA0E10E94F6027894FFCFFFCFF8
:1001DA00BA93AA931A930A93AA81BB8112960E9490
:1001EA009203309759F1AA81BB8114960E94920317
:1001FA008F01309761F00230E0E01E0798F0F801B5
:10020A0031978F01AA81BB811496ED93FC93AA8141
:10021A00BB811296ED91FD913196FE93EE93319743
:10022A00AC81A083AA81BB810E949203FF232AF09A
:10023A00ED91FD913196FE93EE9306C0AA81BB81A2
:10024A00EFEFFFEFED93FC9319810881259608954E
:10025A00BA93AA9326970E949F0310E0AC85BD85A6
:10026A00E0E0F0E0ED93FC93EA89FB893196EA8BB2
:10027A00FB8B3197E4912E2FE03009F415C1E12F61
:10028A00E03039F4253211F411E002C00E94420331
:10029A000AC1E130A9F4253219F40E94420302C1CD
:1002AA0012E040E000E02D3211F401E0FCC02B32F4
:1002BA0011F44BE2F8C0203211F440E2F4C002C05B
:1002CA00E23039F450E013E0203311F40068EBC057
:1002DA0003C0E33009F0E7C0203310F02A3308F0F6
:1002EA0007C0AAE05A9F502DE22FE0535E0FDBC0F1
:1002FA00E22FE33649F40E944903E889F989A48187
:10030A00AA930E944F03CEC0E33741F40E944903E7
:10031A000E9455030E9424031E2F0AC0E03761F48D
:10032A000E9449030E9455030E9430031E2F086051
:10033A0002600F7730E034C0E43611F0E93611F488
:10034A00046002C0E53731F4E4E5F0E0EE83FF83B0
:10035A0015E00CC0E83511F4086003C0E83709F06D
:10036A00A1C0EEE5F0E0EE83FF8314E002FF14C0C3
:10037A000E9449030E945F03AB85AA233AF4EA85E7
:10038A00FB850E948903EA87FB874DE2403011F022
:10039A001F5F01C00B7F04C00E9449030E945F03D4
:1003AA0000FD11C0151778F407FF08C002FF04C04A
:1003BA000B7F242F115001C020E301C020E20E94CC
:1003CA0042035150EFCF312F01FF17C03030A1F057
:1003DA0003FF06C0EE81FF812591EE83FF8305C0EE
:1003EA00AE81BF812D91AE83BF830E9442035030FC
:1003FA0009F051503150EACF4BC020E3EE81FF8122
:10040A000E949603E887F987EE81FF813296EE8390
:10041A00FF83E885F985AA85BB85AE17BF0750F02B
:10042A002F5FA885B985EA85FB85EA1BFB0BEA875E
:10043A00FB87EFCF2A3328F003FF02C0295F01C0F0
:10044A00295D04FD1AC0213320F4A885B9851197C6
:10045A0009F409C0531710F000FF01C013C020E2CD
:10046A0007FF0BC020E3006102FF07C00B7F4A931E
:10047A000E944F03503009F051500E9442035030FD
:10048A0009F051503150A885B985129708F0B5CFB7
:10049A0000FF08C0503031F05150E0E2EA930E9468
:1004AA004F03F8CF10E0E0CEAC85BD850E949203E1
:1004BA000E94A60364960895FF92F82E26970E943A
:1004CA00A1030E946703309719F4EFEFFFEF23C0EF
:1004DA00DE0116960E9485038D010E946703EE8352
:1004EA00FF83E0E0E887E987DE011A960E94850328
:1004FA000E949203FA93EA931A930A93EDEEF0E0BC
:10050A00FA93EA93DE011A96A3DE9F01AE81BF81B8
:10051A00E0E0EC93F9010E94A8032A96FF9008955F
:10052A00AA93EBB3EF70AE2FE881E07FEA2BEBBB27
:10053A0082E08A95F1F7DA9A82E08A95F1F7DA98F9
:10054A0082E08A95F1F779C0AA93A881E9DFE88168
:10055A00E295E883A881E4DF81E18A95F1F76DC02D
:10056A00AA93E881F0E0E05AFE4FE081A981AE0F3C
:10057A00EBDFD980C88022960895A2E00E946E031C
:10058A00ACE0E2DFA1E00E946E03E0E0CE2EDE2EB8
:10059A000895AA93A881AA3021F0E0916401DE1699
:1005AA0048F0E0E0EA93C394AC2DDADFA881AA30E0
:1005BA0009F443C0D394D89AA881C6DFD8983DC01D
:1005CA00BA93AA931A93A981BA81ED91A983BA839E
:1005DA001E2FE03019F0A12FDCDFF5CF188123960A
:1005EA000895AA93EAB3E06FEABBD29AD09AD19A55
:1005FA00DA98D898D998E881E0936401E058E093B2
:10060A006201E881E054E0936301A4E1B0E00E9452
:10061A007B030E9474030E9474030E947403A0E285
:10062A007FDF81E28A95F1F7A8E28EDFA4E08CDF12
:10063A00A5E88ADFA6E088DFA0DF21960895BA93AD
:10064A00AA93A991B991EE27FF276D91662311F01C
:10065A003196FBCF0895BA93AA93AA27BB27E991AB
:10066A00F9910590002011F01196FBCFFD01089534
:10067A000E948D030E949A0308952A93AD85BE8530
:10068A00EF85F88909950895E889F9893497E88BFF
:10069A00F98B0895AD85BE85EF85F889099508958A
:1006AA00A889B98914960E949203EE83FF83AE81CA
:1006BA00BF810895A889B98914960E949203EA878E
:1006CA00FB870895DE011C960E9485030E9492030F
:1006DA0008950E94A902A3E0B0E00C947B03A0E372
:1006EA000E94950281E28A95F1F70895109639F0F1
:1006FA00A8958AEF90E00197F1F71197C9F7089545
:10070A000024AF0DB01D0895F195E195F0400895CC
:10071A006F2F660F660B762F0895ED91FC91119756
:10072A0008950590F491E02D08957A936A93FA93C7
:10073A00EA9308955A934A933A932A931A930A93F7
:10074A0008955D814C813B812A8119810881089530
:00000001FF
