:0C0000000C9442000C9400000C940000D2
:10000C000C9400000C9400000C9400000C94000064
:10001C000C9400000C9400000C9400000C94000054
:10002C000C946F000C9400000C94A7000C9400002E
:10003C000C9400000C9400000C9400000C94000034
:10004C000C9400000C9400001027E80364000A00D4
:10005C000100001000011000010000000000000071
:10006C00000080C001000200660006000400680069
:10007C00020070016E000000F894EE27ECBBF1E07A
:10008C00FBBFEBBFE5BF8DE0A2E0BB27ED938A95EC
:10009C00E9F780E094E0A0E6ED930197E9F7E0E75B
:1000AC00F0E085919591009761F0A591B59105903F
:1000BC001590BF01F00105900D920197E1F7FB013E
:1000CC00F0CFEFE5EDBFE4E0EEBFC0E6D1E00C947D
:1000DC00BE000A921A92FA926A937A938A939A932E
:1000EC00AA93BA93EA93FA93EFB7EA931A930A9303
:1000FC001BB10CB1A02F0E940E01E12FEC7189F401
:10010C00E52D5394F0E0E05AFE4F0083E8E0E5154E
:10011C0009F455247394E8E0E71519F477246894EE
:10012C0020F809911991E991EFBFF991E991B991F1
:10013C00A9919991899179916991F9901990099066
:10014C001895EA93FA93EFB7EA93882061F08A94B2
:10015C00E92D9394F0E0E859FE4FE081ECB9E8E02A
:10016C00E91509F49924E991EFBFF991E9911895F2
:10017C00E0E0EABBEBBBE7BBE8BBE4BBE5BBE1BB48
:10018C00E2BBEBB9E8EDEAB9E6E8E0BDE0E0E0BDE2
:10019C00E9E1E9B9A0E150D07894FFCFFFCFAA9361
:1001AC00EBB3EF70AE2FE881E07FEA2BEBBB82E084
:1001BC008A95F1F7DA9A82E08A95F1F7DA9882E07B
:1001CC008A95F1F764C0AA93A881E9DFE881E295EA
:1001DC00E883A881E4DF81E18A95F1F758C0AA93FE
:1001EC00E881F0E0E059FE4FE081A981AE0FEBDF32
:1001FC00B980A88022960895A2E00E944F01ACE03D
:10020C00E2DFA1E00E944F01E0E0AE2EBE2E089589
:10021C00AA93A881AA3011F0BD1440F0E0E0EA9353
:10022C00A394AA2DDCDFA881AA3089F1B394D89AC3
:10023C00A881C9DFD8982BC0AA93EAB3E06FEABBB8
:10024C00D29AD09AD19ADA98D898D998D880E8814D
:10025C00E058E0937201E881E054E0937301A4E16B
:10026C00B0E00E945C010E9455010E9455010E9461
:10027C005501A0E294DF81E28A95F1F7A8E2A3DFB1
:10028C00A4E0A1DFA5E89FDFA6E09DDFB5DF219606
:10029C0008950E94E900A3E0B0E00C945C01A0E397
:1002AC000E94D50081E28A95F1F70895109639F0F5
:1002BC00A8958AEF90E00197F1F71197C9F7089587
:00000001FF
