:020000000C945E
:100002002F000C9400000C9400000C9400000C943F
:1000120000000C9400000C9400000C9400000C945E
:1000220000000C9400000C9400000C9400000C944E
:1000320000000C9400000C9400000C9400000C943E
:1000420000000C9400000C9400000C9400000C942E
:1000520000003F065B4F666D7D077F6FF894EE27C9
:10006200ECBBF1E0FBBFEBBFE5BF8DE0A2E0BB273D
:10007200ED938A95E9F780E094E0A0E6ED9301978D
:10008200E9F7EFE5EDBFE4E0EEBFC0E6D1E00C94A6
:100092004A0000E010E0E0E0EABBEBBBE7BBE1E0D6
:1000A200E8BBE0E0E4BBE5BBEFEFE1BBE0E0E2BBD5
:1000B200E4E5F0E0049002BAB09910C0B09BFECF24
:1000C200E9E0F0E0E017F10711F40FEF1FEFF8019C
:1000D20031968F01EC5AFF4F049002BAEDCFFFCF59
:00000001FF
