:060000000C9440000C947A
:100006006D000C9471000C9400000C9400000C948C
:1000160000000C9400000C9400000C9400000C945A
:1000260000000C9400000C9400000C9400000C944A
:1000360000000C9400000C9400000C9400000C943A
:1000460000000C9400000C9400000C940000696EF3
:10005600746572727570743100696E74657272754A
:100066007074320080C00B00600154000B006B01FD
:100076005F00020076016A000000F894EE27ECBBF0
:10008600F1E0FBBFEBBFE5BF8DE0A2E0BB27ED9340
:100096008A95E9F780E094E0A0E6ED930197E9F709
:1000A600ECE6F0E085919591009761F0A591B59108
:1000B60005901590BF01F00105900D920197E1F7AB
:1000C600FB01F0CFEFE5EDBFE4E0EEBFC0E6D1E027
:1000D6000C948300B2D0A0E6B1E003C0AED0ABE68C
:1000E600B1E070D0E991EFBFF991E991B991A99189
:1000F6009991899179916991F9901990099018953A
:10010600ECE0E2BBEBB7E06CEBBFEAE0E5BFE0E0BA
:10011600E4BFE0ECEABFA0E166D07894AAE23DD065
:10012600A4EFB1E00E943901F9CFFFCFAA93EBB358
:10013600EF70AE2FE881E07FEA2BEBBB82E08A9579
:10014600F1F7DA9A82E08A95F1F7DA9882E08A95F1
:10015600F1F771C0AA93A881E9DFE881E295E88307
:10016600A881E4DF81E18A95F1F765C0AA93E88169
:10017600F0E0EA58FE4FE081A981AE0FEBDF59802F
:10018600488022960895A2E066D0ACE0E3DFA1E0C5
:1001960062D0E0E04E2E5E2E0895AA93A881AA3082
:1001A60011F0571448F0E0E0EA934394A42DDEDF03
:1001B600A881AA3009F43FC05394D89AA881CADF0F
:1001C600D89839C0BA93AA931A93A981BA81ED91A6
:1001D600A983BA831E2FE03019F0A12FDEDFF5CFF9
:1001E600188123960895AA93EAB3E06FEABBD29AE0
:1001F600D09AD19ADA98D898D9987880E881E05838
:10020600E0937801E881E054E0937901A4E1B0E05D
:100216000E94390125D024D023D0A0E287DF81E2D5
:100226008A95F1F7A8E296DFA4E094DFA5E892DFCD
:10023600A6E090DFA8DF219608950A921A92FA9214
:100246006A937A938A939A93AA93BA93EA93FA93C0
:10025600EFB7EA9308957EDFA3E0B0E00C9439018E
:10026600A0E364DF81E28A95F1F70895109639F0EC
:10027600A8958AEF90E00197F1F71197C9F70895CD
:00000001FF
