:020000000C945E
:100002003F000C9400000C9400000C9400000C942F
:1000120000000C9400000C9400000C9400000C945E
:1000220000000C9400000C9400000C9400000C944E
:1000320000000C9400000C9400000C9400000C943E
:1000420000000C9400000C9400000C9400000C942E
:100052000000202020343032333632333031362023
:1000620020004D6173696820526F756768616E691F
:10007200200080C00200600174000000F894EE27A6
:10008200ECBBF1E0FBBFEBBFE5BF8DE0A2E0BB271D
:10009200ED938A95E9F780E094E0A0E6ED9301976D
:1000A200E9F7E6E7F0E085919591009761F0A59177
:1000B200B59105901590BF01F00105900D92019741
:1000C200E1F7FB01F0CFEFE5EDBFE4E0EEBFC0E604
:1000D200D1E00C946C00A09780E2A0E0B0E0E4E5EF
:1000E200F0E00E942A0110E001E0A0E173D042D0CA
:1000F2001A93A0E032D0123009F40FEF103009F455
:1001020001E0100FDE01509654D0DE0152D0AAEF6A
:10011200B0E00E942001EBCFFFCFAA93EBB3EF70C8
:10012200AE2FE881E07FEA2BEBBB82E08A95F1F704
:10013200DA9A82E08A95F1F7DA9882E08A95F1F705
:1001420071C0AA93A881E9DFE881E295E883A881DA
:10015200E4DF81E18A95F1F765C0AA93E881F0E0D6
:10016200E05AFE4FE081A981AE0FEBDF5980488053
:1001720022960895A2E058D0ACE0E3DFA1E054D08B
:10018200E0E04E2E5E2E0895AA93A881AA3011F0C7
:10019200571448F0E0E0EA934394A42DDEDFA881EF
:1001A200AA3009F43FC05394D89AA881CADFD898DC
:1001B20039C0BA93AA931A93A981BA81ED91A983FE
:1001C200BA831E2FE03019F0A12FDEDFF5CF1881A0
:1001D20023960895AA93EAB3E06FEABBD29AD09A23
:1001E200D19ADA98D898D9987880E881E058E09343
:1001F2006201E881E054E0936301A4E1B0E00E946F
:10020200200117D016D015D0A0E287DF81E28A95AF
:10021200F1F7A8E296DFA4E094DFA5E892DFA6E07A
:1002220090DFA8DF219608958CDFA3E0B0E00C9464
:100232002001A0E372DF81E28A95F1F7089510961A
:1002420039F0A8958AEF90E00197F1F71197C9F775
:100252000895AC0FBD1F05900D928A95E1F70895A0
:00000001FF
