:0A0000000C9430000C945D000C9489
:10000A0064000C9400000C9400000C9400000C9402
:10001A0000000C9400000C9400000C9400000C9456
:10002A0000000C9400000C9400000C9400000C9446
:10003A0000000C9400000C9400000C9400000C9436
:10004A0000000C9400000C9400000A000000040058
:10005A00040054000000F894EE27ECBBF1E0FBBF6B
:10006A00EBBFE5BF8DE0A2E0BB27ED938A95E9F7E8
:10007A0080E094E0A0E6ED930197E9F7E8E5F0E087
:10008A0085919591009761F0A591B591059015908C
:10009A00BF01F00105900D920197E1F7FB01F0CF46
:1000AA00EFE5EDBFE4E0EEBFC0E6D1E00C947000EE
:1000BA00EA93FA93EFB7EA93F301319606C0EA930B
:1000CA00FA93EFB7EA93F30131973F01E991EFBF52
:1000DA00F991E9911895E8E0E7BBE0E0E8BBE1BBFC
:1000EA00ECE0E2BBEBE4E3BFE0E0E2BFECBFE9BF78
:1000FA00EBB7E06CEBBFEAE0E5BFE0E0E4BFE0ECC1
:10010A00EABF7894C398D201A619B7090E9493004E
:10011A00C39AD3010E949300F5CFFFCF109639F00E
:10012A00A8958AEF90E00197F1F71197C9F708951A
:00000001FF
